:100000000C949C050C94E3050C94E3050C94E30517
:100010000C94E3050C94E3050C94E3050C94E305C0
:100020000C94E3050C94E3050C94FD270C94B9277C
:100030000C94D02F0C94E3050C94E3050C94E30589
:100040000C94E3050C94E3050C94E3050C94E30590
:100050000C94E3050C94AC2F0C94E3050C94E3058D
:100060000C94E3050C94E3050C94E3050C94E30570
:100070000C94E3050C94E3050C94E3050C94E30560
:100080000C94E3050C94E3050C94E3050C94E30550
:100090000C94E3050C94E3050012AAFFFFFF000097
:1000A0000000001255FFFFFF00000000001200FFDB
:1000B000FFFF0000000000060000FFFF000000003E
:1000C00005010902A10185020901A1000509190123
:1000D0002905150025019505750181029501750316
:1000E00081010501093009311581257F95027508C7
:1000F000810609381581257F950175088106050C53
:100100000A38021581257F950175088106C0C00552
:10011000010980A101850319012AB700150126B73D
:1001200000950175108100C0050C0901A10185042D
:1001300019012AA002150126A0029501751081005F
:10014000C005010906A1018505050719E029E71584
:100150000025019508750181020507190029EF1591
:1001600000250195F0750181020508190129059501
:100170000575019102950175039101C00660FF09A3
:1001800061A1010962150026FF0095207508810212
:100190000963150026FF00952075089102C005012E
:1001A0000906A101050719E029E7150025019508B1
:1001B000750181029501750881010507190029FF64
:1001C000150026FF0095067508810005081901290C
:1001D00005950575019102950175039101C0000116
:1001E00001010101010101010202020202020202F7
:1001F00002030303030303030304040404040404C9
:10020000050505050506060606060707070707088C
:10021000080808090909090A0A0A0B0B0B0C0C0C3F
:100220000D0D0D0E0E0E0F0F0F10101111111212D9
:1002300013131414151516161717181819191A1A56
:100240001B1B1C1D1D1E1E1F2020212222232424B7
:10025000252626272829292A2B2C2D2D2E2F3031F3
:100260003232333435363738393A3B3C3D3E3F4005
:100270004142434445464748494A4C4D4E4F5051F0
:100280005354555658595A5B5D5E5F6162646566AA
:1002900068696B6C6D6F7072737577787A7B7D7E31
:1002A0008082838587888A8C8E8F91939596989A81
:1002B0009C9EA0A2A3A5A7A9ABADAFB1B3B5B7BA99
:1002C000BCBEC0C2C4C6C9CBCDCFD1D4D6D8DBDD6D
:1002D000DFE2E4E7E9EBEEF0F3F5F8FAFDFFFFAA61
:1002E0007F55402223252628292A2C2D2F303233D2
:1002F0003536383A3B3D3E4042434547494A4C4EED
:100300005051535557595A5C5E6062646668696B18
:100310006D6F71737577797B7D7F81838587898A1E
:100320008C8E90929496989A9C9E9FA1A3A5A7A824
:10033000AAACAEAFB1B3B4B6B8B9BBBCBEBFC1C254
:10034000C3C5C6C7C9CACBCCCDCED0D1D2D2D3D4E7
:10035000D5D6D7D7D8D9D9DADADBDBDBDCDCDCDC05
:10036000DCDDDDDDDDDCDCDCDCDCDBDBDBDADAD9D3
:10037000D9D8D7D7D6D5D4D3D2D2D1D0CECDCCCB55
:10038000CAC9C7C6C5C3C2C1BFBEBCBBB9B8B6B473
:10039000B3B1AFAEACAAA8A7A5A3A19F9E9C9A9803
:1003A000969492908E8C8A89878583817F7D7B79D4
:1003B000777573716F6D6B6968666462605E5C5AB5
:1003C0005957555351504E4C4A4947454342403E78
:1003D0003D3B3A3836353332302F2D2C2A2928260A
:1003E0002523220F001E0015003A003B003C003D73
:1003F000003E003F000F00210015000F001F0015F8
:10040000004000410042004300440045000F00222C
:100410000015000F00200015000400160007000959
:10042000000A000B000F0023001500000000000070
:1004300000520025005100C95C2600CA5C0F002450
:100440000015000100010001000100010001000190
:100450000001000100010001000100010001000194
:100460000001000100010001000100010001000184
:100470000001000100010001000100010001000174
:100480000001000100010001000100000000000067
:100490000001000100010001000100010001000154
:1004A0000001000100010001000100010001000144
:1004B0000001000100010001000100010001000134
:1004C0000001000100010001000100010001000124
:1004D0000001000100010001000100010001000114
:1004E0000001000100010001000100000000000007
:1004F00000010001000100010001000100010001F4
:1005000000010001000100010001000100010001E3
:1005100000010001000100010001000100010001D3
:1005200000010001000100010001000100010001C3
:1005300000010001000100010001000100010001B3
:1005400000010001000100010001000000000000A6
:100550000001000100010001000100010001000193
:100560000001000100010001000100010001000183
:100570000001000100010001000100010001000173
:100580000001000100010001000100010001000163
:100590000001000100010001000100010001000153
:1005A0000001000100010001000100000000000046
:1005B0000001000100010001000100010001000133
:1005C0000001000100010001000100010001000123
:1005D0000001000100010001000100010001000113
:1005E0000001000100010001000100010001000103
:1005F00000010001000100010001000100010001F3
:1006000000010001000100010001000000000000E5
:1006100000010001000100010001000100010001D2
:1006200000010001000100010001000100010001C2
:1006300000010001000100010001000100010001B2
:1006400000010001000100010001000100010001A2
:100650000001000100010001000100010001000192
:100660000001000100010001000100000000000085
:100670000001000100010001000100010001000172
:100680000001000100010001000100010001000162
:100690000001000100010001000100010001000152
:1006A0000001000100010001000100010001000142
:1006B0000001000100010001000100010001000132
:1006C0000001000100010001000100000000000025
:1006D0000001000100010001000100010001000112
:1006E0000001000100010001000100010001000102
:1006F00000010001000100010001000100010001F2
:1007000000010001000100010001000100010001E1
:1007100000010001000100010001000100010001D1
:1007200000010001000100010001000000000000C4
:1007300000010001000100010001000100010001B1
:1007400000010001000100010001000100010001A1
:100750000001000100010001000100010001000191
:100760000001000100010001000100010001000181
:100770000001000100010001000100010001000171
:100780000001000100010001000100000000000064
:100790000001000100010001000100010001000151
:1007A0000001000100010001000100010001000141
:1007B0000001000100010001000100010001000131
:1007C0000001000100010001000100010001000121
:1007D0000001000100010001000100010001000111
:1007E0000001000100010001000100000000000004
:1007F00000010001000100010001000100010001F1
:1008000000010001000100010001000100010001E0
:1008100000010001000100010001000100010001D0
:1008200000010001000100010001000100010001C0
:1008300000010001000100010001000100010001B0
:1008400000010001000100010001000000000000A3
:100850000001000100010001000100010001000190
:100860000001000100010001000100010001000180
:100870000001000100010001000100010001000170
:100880000001000100010001000100010001000160
:100890000001000100010001000100010001000150
:1008A0000001000100010001000100000000000043
:1008B0000001000100010001000100010001000130
:1008C0000001000100010001000100010001000120
:1008D0000001000100010001000100010001000110
:1008E0000001000100010001000100010001000100
:1008F00000010001000100010001000100010001F0
:1009000000010001000100010001000000000000E2
:1009100000010001000100010001000100010001CF
:1009200000010001000100010001000100010001BF
:1009300000010001000100010001000100010001AF
:10094000000100010001000100010001000100019F
:10095000000100010001000100010001000100018F
:100960000001000100010001000100000000000082
:10097000000100010001000100010001000100016F
:10098000000100010001000100010001000100015F
:10099000000100010001000100010001000100014F
:1009A000000100010001000100010001000100013F
:1009B000000100010001000100010001000100012F
:1009C0000001000100010001000100000000000022
:1009D000000100010001000100010001000100010F
:1009E0000001000000000000000000000000000006
:1009F000000000000000007E0F00D4FFFFFFC700D2
:100A000000007800000000000000002A2B280000F1
:100A100000000000000000000000000000002900AD
:100A20000000002C1E3420212224342627252E36B7
:100A30002D3738271E1F2021222324252633333625
:100A40002E37381F0405060708090A0B0C0D0E0F78
:100A5000101112131415161718191A1B1C1D2F31FB
:100A600030232D350405060708090A0B0C0D0E0F5F
:100A7000101112131415161718191A1B1C1D2F31DB
:100A800030354CB600AC00A2009800000032190AC4
:100A900000047F3F1F643214643214783C1E1E141D
:100AA0000A0509025B00030100A0FA090400000125
:100AB0000301010009211101000122400007058105
:100AC0000308000A090401000203000000092111C3
:100AD000010001222200070582032000010705030F
:100AE0000320000109040200010300000009211194
:100AF00001000122BC000705840320000A12011036
:100B000001000000084B411500010001020301042F
:100B100003300000000803410039006500000012A6
:100B200003410074006C0061006E00740069007382
:100B3000000000040309040011241FBECFEFD0E120
:100B4000DEBFCDBF04B603FE27C08091C4049091E0
:100B5000C504A091C604B091C7048730904BA7404C
:100B6000B04BD1F41092C4041092C5041092C60484
:100B70001092C70414BE84B7877F84BF0FB6F89461
:100B8000A895809160008861809360001092600059
:100B90000FBEE0E0F8E7099524E0A2ECB1E001C067
:100BA0001D92A43CB207E1F711E0A0E0B1E0E0E65D
:100BB000F3E602C005900D92A23CB107D9F70E945E
:100BC000EB280C9463310C940000E8EDF0E0808198
:100BD0008C7F80831092E2001092DA001092E10084
:100BE000A0EEB0E08C9181608C9380818F778083C0
:100BF00019BCA7EDB0E08C918E7F8C9380818F7EA5
:100C0000808310928A0408952091E4003091E500D9
:100C100095E6A9012091EC00822F817020FF06C08B
:100C20008091E80080FF06C080E008952091E800F0
:100C300022FD1AC08091BF04882389F0853089F095
:100C40008091EB0085FD0FC02091E4003091E5001C
:100C500042175307F9F29150E1F684E0089582E0DB
:100C6000089583E0089581E00895EF92FF920F9335
:100C70001F93CF937C018B010E940406C82F811122
:100C800017C08091E80085FD0BC08091E8008E7749
:100C90008093E8000E940406882399F3C82F08C0B7
:100CA000F70181917F018093F1000150110949F70B
:100CB0008C2FCF911F910F91FF90EF900895CF93BC
:100CC000FC018091BF04843001F5C091E900CF7030
:100CD0002091EC00922F917020FD90E8C92B82E0CA
:100CE0008093E9008091E80080FF0CC050E040E074
:100CF00060E270E0CF010E9435068091E8008E77B7
:100D00008093E800CF70C093E900CF91089580915F
:100D1000B70487FF13C08091E80082FF06C080916E
:100D2000E8008B778093E80004C08091BF048111B4
:100D3000F2CF08958091BF048823D9F38091E80011
:100D400080FFF8CF8091E8008E77ECCF982F9093BA
:100D5000E900242F762F50E0891731F07091EC00D4
:100D60002091ED005091F00021FD07C09F5F97306A
:100D700071F78093E90081E008953091EB003E7FA8
:100D80003093EB003091ED003D7F3093ED003091DA
:100D9000EB0031603093EB007093EC002093ED009A
:100DA0005093F0002091EE0027FDE0CF80E0089501
:100DB000CF92DF92EF92FF920F931F93CF93DF9327
:100DC000C8EDD0E088818F7E8883E7EDF0E08081F8
:100DD0008160808381E080938A0488818C7F88830E
:100DE00002EE10E0D8011C921092DA0081EEC82EBB
:100DF000D12CD6011C9288818F7788838881806866
:100E0000888388818F7D888380818068808319BCF6
:100E10001092BF041092B6041092B5041092B4045C
:100E200090EEE92EF12CF70180818B7F8083888101
:100E30008160888342E060E080E00E94A606D601DF
:100E40008C918E7F8C93F80180818160808380817A
:100E500088608083D7018C918E7F8C93888180619C
:100E60008883DF91CF911F910F91FF90EF90DF90DA
:100E7000CF900895FC018091BD049091BE04861727
:100E80009707A0F06115710529F49091E8009E770D
:100E90009093E80090E06115710551F4911108C03C
:100EA0008091E80082FF33C080E00895BC01F2CF5A
:100EB0008091BF048823B9F18530B9F18091E800B1
:100EC00083FD2FC08091E80082FDEACF8091E80089
:100ED00080FFE1CF2091F2003091F30061157105A0
:100EE00019F02830310558F091E02830310509F02B
:100EF00090E02091E8002E772093E800CCCF8191FC
:100F00008093F100615071092F5F3F4FE7CF8091CF
:100F1000BF04882341F0853041F08091E80083FFD1
:100F2000BFCF81E0089582E0089583E00895809125
:100F3000BF04843011F482E0089581E0089508959B
:100F400080919304089590916D04803F41F48091C5
:100F50006E0487FD10926E04992371F00895813F0D
:100F600029F480916E041816ACF3F6CF823F81F419
:100F700097FFF2CF10926D0480916E0490916F04F0
:100F8000892B90917004892B49F710926804089579
:100F9000833F19F4191674F3DFCF893F39F4809138
:100FA0006F041816CCF610926F04D6CF8A3F29F43E
:100FB00080916F0487FFD0CFF6CF8B3F39F48091BB
:100FC000700487FFC9CF10927004C6CF8C3F29F4FC
:100FD000809170041816BCF3BFCF843F31F4809128
:100FE0006C048E7F80936C04B7CF853F21F4809191
:100FF0006C048D7FF7CF863F21F480916C048B7F4A
:10100000F1CF873F21F480916C04877FEBCF883F3D
:1010100021F480916C048F7EE5CF8D3F31F4809177
:1010200032048E7F8093320497CF8E3F21F48091DB
:1010300032048D7FF7CF8F3F09F08ECF809132043D
:101040008B7FF0CF8091320480FD16C081FD16C0E9
:1010500082FD16C0809168048823A1F0883280F454
:1010600028E0829FC001112468E270E00E942530D0
:10107000862F672B39F0089582E0089584E0089563
:1010800088E0089581E008958091320480FD14C0C5
:1010900081FD14C082FD16C080916804882381F010
:1010A000843180F422E3829FC001112464E170E066
:1010B0000E942530862F08958CE0089589E10895D7
:1010C00085E0089582E30895803F31F40E9444084A
:1010D000819580936E040895813F19F40E9444081D
:1010E000F8CF823F31F40E944408819580936D04CB
:1010F0000895833F19F40E944408F8CF893F29F4EA
:101100000E94220880936F0408958A3F21F40E9470
:1011100022088195F7CF8B3F31F40E9422088195F8
:101120008093700408958C3F19F40E942208F8CF30
:10113000843F31F480916C04816080936C04089545
:10114000853F21F480916C048260F7CF863F21F4C3
:1011500080916C048460F1CF873F21F480916C040E
:101160008860EBCF883F21F480916C048061E5CFEB
:101170008D3F31F480913204816080933204089570
:101180008E3F21F4809132048260F7CF8F3FB9F710
:10119000809132048460F1CF9C014FB7F894809124
:1011A000860490918704A0918804B09189044FBF70
:1011B000821B930B08952FB7F89480918604909129
:1011C0008704A0918804B09189042FBF0895E0910D
:1011D0004004F0914104309749F082E080936B0421
:1011E0000480F581E02D8BE694E009950E94DB08F0
:1011F0009093670480936604089580912D04811173
:1012000010922D04089580912C0490912B04892B29
:1012100090912A04892B8093C20190912D049923E7
:10122000A1F0892B8093C20180911B01882341F199
:1012300080913B0487FF24C08EE1E4ECF1E090E074
:10124000815000F591110E94FD08E0914004F09159
:1012500041043097E1F080911B01882359F080917F
:101260003B0487FF07C08091C2018093C30185E0E2
:101270008093C2010280F381E02D82EC91E0099419
:1012800086E0DBCF21912223D9F29F5FD9CF089549
:1012900090911B019923D1F090913B0497FF16C0C8
:1012A000E82FE695E695E695EE31E0F4F0E0EE53B2
:1012B000FE4F282F277081E090E001C0880F2A950B
:1012C000EAF780959281892382830895E4ECF1E026
:1012D0009191891303C0DF0111971C9291E0EA3CC0
:1012E000F907B1F7089590911B019923C1F09091EE
:1012F0003B0497FF14C0E82FE695E695E695EE319E
:10130000F8F4F0E0EE53FE4F877021E030E001C0CA
:10131000220F8A95EAF78281822B82830895A4ECBA
:10132000B1E0EFEF90E02D91821751F0EF3F19F40B
:10133000211101C0E92F9F5F9630A9F7EF3F09F413
:1013400008950E2E000CFF0BEE53FE4FE6CF2CE05F
:10135000929F800D1124982F97708695869586957B
:1013600025E0829FF0011124E55FFB4F50E040E053
:1013700080E0219130E0092E02C0369527950A942D
:10138000E2F721703327042E01C0220F0A94EAF7F6
:10139000822B4F5F5F4F4530510559F708952CE080
:1013A000929F800D1124982F977041E001C0440F47
:1013B0009A95EAF786958695869595E0899FF0013E
:1013C0001124E55FFB4F90E080E070E05191DF0178
:1013D00011979B01082E02C0369527950A94E2F7D3
:1013E000217021952527242325272C9301968530CC
:1013F000910561F7089580910A049091D90398139B
:1014000001C008958F5F8770FACF882341F08095DF
:1014100090912C04892380932C040C940309089543
:10142000882339F090912C04982B90932C040C94E1
:10143000030908952091CC033091CD032817390773
:1014400071F09093CD038093CC03E0914004F09130
:101450004104309721F00084F185E02D099408952E
:101460002091CA033091CB032817390771F090936C
:10147000CB038093CA03E0914004F091410430977C
:1014800021F00680F781E02D0994089510922B0435
:1014900010922A040E94030986E0EBE6F4E0DF01E3
:1014A0001D928A95E9F710926804109232040E9406
:1014B000E70890E080E00E94300A90E080E00C9421
:1014C0001A0A60932E0470932F0480933004909333
:1014D00031040C94460AE0914004F09141043097A5
:1014E00021F00190F081E02D099480E00895882397
:1014F00009F459C0823871F40E946B0A81FF53C00D
:1015000089E30E9473090E94030989E30E94480944
:101510000C940309833859F40E946B0A80FF43C07E
:1015200083E50E9473090E94030983E5EFCF8438A5
:1015300059F40E946B0A82FF36C087E40E94730947
:101540000E94030987E4E2CF9CEF980F913AF0F2F2
:1015500090E2980F983088F4877021E030E0A9017C
:1015600002C0440F551F8A95E2F7CA0180959091F9
:101570002C04892380932C04CBCF9BE5980F9330C8
:1015800020F490E080E00C94300A98E5980F9731B1
:1015900020F490E080E00C941A0A803F20F00E9432
:1015A000A3070C94E7080895FA01811101C0FB011B
:1015B000099480918B04982F9E7F61F481708260E2
:1015C00080938B0480918E04853B18F084EB80938C
:1015D0008E0408958635B0F381708465F1CFAF92A3
:1015E000BF92DF92EF92FF920F931F93CF93DF93FF
:1015F000182F062FE901453B08F044EBE42FF0E0FB
:10160000E252FE4F011110C0E4915E2F4E2F49832C
:10161000E8835A83DF91CF911F910F91FF90EF9054
:10162000DF90BF90AF900895202F30E04491D42EEA
:10163000E42EF12C56E0159FC0011124EFEFF0E0ED
:10164000BF010E941130812F90E0880F991F55E54E
:10165000569FD001579FB00D11248A1B9B0B982FCA
:10166000990F890F5F01A21AB30AAE9CD001AF9CFB
:10167000B00DBE9CB00D11245B2F089F800111247A
:10168000012F11275F01A01AB10AAE9C8001AF9C07
:10169000100DBE9C100D11245F01A81AB108A29E66
:1016A000C001A39E900DB29E900D1124892F992701
:1016B000E81BF90BEE9DC001EF9D900DFE9D900D76
:1016C0001124E92F62307105A1F050F46115710504
:1016D00009F49DCF6130710581F0EB2F512F97CF29
:1016E0006430710569F080F06630710509F48FCFC0
:1016F000F4CFE42F4B2F592F8ACFE42F412F87CFE0
:10170000EB2F542F492F83CF4B2F5D2DE12F7FCF10
:1017100090913B0492FF06C0282F28712830F9F4DD
:10172000877F846093FF06C0282F28712831F1F449
:10173000877E846120913C0420FF06C0382F3871D9
:101740003830D9F4877F816021FF06C0282F2871A7
:101750002831D1F4877E816194FD877E0895282FFA
:1017600024712430F9F68B7F8860DCCF282F247118
:10177000243101F78B7E8861DDCF382F3171313014
:1017800019F78E7F8860E0CF282F2171213121F752
:101790008E7E8861E1CFCF93DF9300D00F92CDB7DB
:1017A000DEB79091BF04943011F589837B836A83FF
:1017B0009093E9008FEF9091E800815095FD06C06D
:1017C00095ED9A95F1F700008111F5CF8091E80031
:1017D00085FF0DC050E040E063E070E0CE0101966F
:1017E0000E9435068091E8008E778093E8000F9084
:1017F0000F900F90DF91CF910895CF93DF93EC017D
:101800000E949707823011F0843031F4BE0184E0E9
:10181000DF91CF910C94CB0BDF91CF910895BC0158
:1018200083E00C94CB0BCF93DF93EC010E949707DE
:10183000823011F08430F9F484E08093E9008FEF76
:101840009091E800815095FD06C095ED9A95F1F7CD
:1018500000008111F5CF8091E80085FF0CC050E0B9
:1018600040E066E070E0CE010E9435068091E8001D
:101870008E778093E800DF91CF910895CF93DF9327
:10188000EC010E949707823011F08430B9F5809105
:101890001B018823B1F180913B0487FF32C060E2D5
:1018A00084E08093E9008FEF9091E800815095FDEE
:1018B00006C095ED9A95F1F700008111F5CF809162
:1018C000E80085FF1BC080911B0170E050E040E004
:1018D000811104C050E040E068E070E0CE010E9459
:1018E00035068091E8008E778093E80080E2FE0163
:1018F000A4E9B4E001900D928A95E1F7DF91CF91D0
:10190000089568E081E0CDCF81E08093E00080E23F
:101910008093D8001092C9008FE19EE40197F1F7FF
:1019200000C0000087E090EBDC018093C40490933A
:10193000C504A093C604B093C70488E19CE00FB629
:10194000F894A895809360000FBE90936000FFCF3D
:10195000CF93C82F882309F4AEC08238C1F40E9407
:101960006B0A81FDA8C089E30E9473090E940309E4
:101970002FEF81EE94E0215080409040E1F700C0CD
:10198000000089E30E944809CF910C940309833831
:10199000A1F40E946B0A80FD8EC083E50E9473094A
:1019A0000E9403092FEF81EE94E021508040904087
:1019B000E1F700C0000083E5E5CF8438A1F40E9480
:1019C0006B0A82FD78C087E40E9473090E940309B4
:1019D0002FEF81EE94E0215080409040E1F700C06D
:1019E000000087E4CFCF8CEF8C0F813A88F580918F
:1019F0001B01882301F180913B0487FF1CC0EC2F61
:101A0000E695E695E695F0E0EE53FE4F828190E094
:101A10004C2F477021E030E002C0220F331F4A955F
:101A2000E2F782239323892B79F08C2F0E944809B7
:101A30000E94030909C0E4ECF1E08191C817A9F301
:101A400021E0EA3CF207C9F78C2F0E9473099CCF72
:101A500080E28C0F883068F4C77021E030E001C06C
:101A6000220FCA95EAF780912C04822B80932C04D4
:101A70008BCFEBE5EC0FE33040F4F0E0E95BFE4F99
:101A8000808190E0CF910C94300AE8E5EC0FE731CB
:101A900050F4F0E0EE0FFF1FE65BFE4F8081918176
:101AA000CF910C941A0AC03F30F08C2F0E9464082A
:101AB000CF910C94E708CF910895CF93C82F0E943F
:101AC000A80CC93349F42FEF87EE93E021508040F2
:101AD0009040E1F700C000008C2FCF910C94770A62
:101AE0000F931F93CF93DF93C62FD42F022FFC01A8
:101AF00082818823A1F06093D1030E94DB08909338
:101B0000C9038093C803C77081E001C0880FCA95DC
:101B1000EAF7DF91CF911F910F910C94100A109169
:101B2000D103161335C08091C8039091C9030E9458
:101B3000CC08883C910560F5C0E2CD0F1D17B9F0C7
:101B400080E2810F883040F4177081E001C0880F77
:101B50001A95EAF70E94050AC83048F481E09D2FE3
:101B6000977001C0880F9A95EAF70E94100A802F9B
:101B70000E945D0DC83098F4D77081E001C0880FD5
:101B8000DA95EAF7DF91CF911F910F910C94050A36
:101B9000C77081E001C0880FCA95EAF7F3CFDF91E3
:101BA000CF911F910F9108957F928F929F92AF9244
:101BB000BF92CF92DF92EF92FF920F931F93CF933A
:101BC000DF9308E711E0A3E3B4E0712CCC24C394C5
:101BD000D12CE80189918E01E82FE295EF70F0E0B9
:101BE00091A18F70760101C0EE0C8A95EAF7892FDA
:101BF0008E2981A392A17E2D7095972392A3D0EA7E
:101C0000DA95F1F79CE7A92E91E0B92E50E040E07B
:101C100030E020E0E50169915E01862E82948FE03C
:101C20008822912CE40188A190E06F7002C0959504
:101C300087956A95E2F780FD5CC0C601042E02C05C
:101C4000880F991F0A94E2F7282B392B4F5F5F4FBB
:101C50004C305105F9F681A1872381A382A1E82A9E
:101C6000E2A28D919C9111972817390709F444C07D
:101C700011963C932E9381E0782A1296D1E00C378E
:101C80001D0709F0A6CF7720C9F181E08093E40118
:101C90000E94DB089093E3018093E2018091E201CE
:101CA0009091E3010E94CC08069760F18091330483
:101CB0009091340490937F0480937E048091350446
:101CC000909136049093810480938004809137042E
:101CD0009091380490938304809382048091390416
:101CE00090913A0490938504809384041092E401C7
:101CF00009C090E080E0A8CF80E0BECF8091E401F1
:101D00008111CCCF8091D003882371F08091CE03D4
:101D10009091CF030E94CC08893E934028F082EE38
:101D20000E94770A1092D003872DDF91CF911F91E7
:101D30000F91FF90EF90DF90CF90BF90AF909F906A
:101D40008F907F900895CF9384E090E00E94B83008
:101D5000C82F81E290E00E94B830982F8C2FCF914D
:101D600008950F931F93CF93DF93C42FD0E0CC0F30
:101D7000DD1F28E1629FC00DD11D112430E6839F35
:101D8000C00DD11D1124CE0186960E94B830082FB7
:101D900010E0102F0027CE0187960E94B8309801DE
:101DA000282BC901DF91CF911F910F910895462FE4
:101DB000873038F4743028F46C3018F4672F0C94A2
:101DC000B10E90E080E00895CF93DF930E94D70E8C
:101DD000EC0182389105A9F1D8F58133910509F418
:101DE00096C048F58932910509F48AC08A9709F4AA
:101DF00095C0C11521E5D20708F0BCC0C11530E57A
:101E0000D30708F014C1C83ED10508F09CC0C03EFD
:101E1000D10560F5C83AD10508F087C0C53AD105AB
:101E200008F0FDC0C130D10509F12097F9F0C430A8
:101E3000D105E0F440C08533910509F45AC0C99733
:101E4000C1F680913B04837089F0C0EED0E00EC0F3
:101E5000833E910599F170F4803E910501F1823E37
:101E6000910539F680913B0482FD21C0CE01DF91BE
:101E7000CF910895863E910561F1873E910571F1FC
:101E8000843E910509F0B5CF80913C0481FFEECFEF
:101E900080913B04C7EED0E084FD0DC0E7CF809178
:101EA0003B0480FD12C190913C0490FFDFCFC3EE54
:101EB000D0E084FFDBCFD0E0C0E0D8CF80913B04FE
:101EC00082FD06C190913C0490FDBFCF84FFCECF30
:101ED000F2CF80913B0483FDDDCFC8CF80913B04DE
:101EE00083FDF9C090913C0491FFF0CFC4EED0E0A7
:101EF000BDCF80913B0485FFB9CFC9E2D0E0B6CF1A
:101F000080913B0485FFB2CFC5E3D0E0AFCF809195
:101F10003B0486FFABCFCAE2D0E0A8CF80913B0460
:101F200086FFA4CFC1E3D0E0A1CFCF3BD10518F607
:101F3000C85AD0E0CC0FDD1FC65BDE4F0990D881B8
:101F4000C02DD46493CFC11540E2D40758F4C11515
:101F500081E0D80708F08ACFC03FD10508F4ABCFA5
:101F6000D06584CFC11590E4D90708F4A4CFDF7001
:101F7000D06A7CCFC11525E5D20700F5C11534E53F
:101F8000D30708F08AC0C11543E5D40708F071C033
:101F9000C11582E5D80708F467C0CE018370992780
:101FA00021E030E002C0220F331F8A95E2F7C69588
:101FB000C69580E2C89FE001112452C0C11599E581
:101FC000D907A8F4C11528E5D20708F06BC0C115E0
:101FD00036E5D30708F06FCF8C2F0E94880BC82FEF
:101FE000D0E0DC2FCC27CC27DF71D0623FCFC115EA
:101FF0004AE5D40708F45BC0CE01905681159042A3
:1020000008F059CF8D2F8F710E94880B90E0982F88
:10201000882788279F719C012C2BE901E6CFC55AA0
:10202000D0E0C95BDE4FC881D0E0D0641FCFCE01C5
:10203000E4E096958795EA95E1F783702C2F269535
:102040002695237040E2249F90011124382B8C2F79
:102050008370C1E0D0E002C0CC0FDD1F8A95E2F7AB
:10206000C22BD32BDC6802CFDC2FCC27C16FD06A08
:10207000FDCECE018370992721E030E002C0220F0F
:10208000331F8A95E2F7C695C69590E2C99FE00195
:102090001124C22BD32BDA68E9CEDC2FCC27C46FF6
:1020A000D06AE4CEDC2FCC27C06FD06ADFCE8C2F75
:1020B0008F700E94880B34E0D695C7953A95E1F76A
:1020C000CF709C2FEC01D069D1CEC9E3D0E0CECE49
:1020D000C2EED0E0CBCEC6EED0E0C8CEBF92CF925B
:1020E000DF92EF92FF920F931F93CF93DF938C01B8
:1020F000C090C004D090C104E090C204F090C3042A
:1021000080912E0490912F04A0913004B09131045D
:10211000C82AD92AEA2AFB2ACFE1D0E0BC2ED7016F
:10212000C6010C2E04C0B695A795979587950A947D
:10213000D2F780FD0EC0219788F7B12C8B2DDF914F
:10214000CF911F910F91FF90EF90DF90CF90BF90B4
:102150000895B8018C2F0E94E40E019761F3EECF31
:10216000CF93DF93EC010E946E10BE01DF91CF91FF
:102170000C94E40E0E94B010292F2F7092959F703E
:1021800092509E3078F4E92FF0E0EB59FE4C0C941D
:102190003930803F19F020F4883E20F481E0089522
:1021A000843FE1F380E00895883EC0F3813FD1F79A
:1021B000F5CF822F86958695869508956F927F92AA
:1021C0008F929F92AF92BF92CF92DF92EF92FF9247
:1021D0000F931F93CF93DF9383EEC82E83E0D82E07
:1021E0009EE9E92EF12CE701C056D10936011BC04A
:1021F000F50185909490692DC8010E94CC30682D1E
:10220000C80101960E94CC3082E0A80EB11C0E5F7E
:102210001F4FC017D10761F788E1680E711C6896DF
:10222000CE15DF0529F08E01085111095301E0CFC9
:102230007E0180E6E80EF11C80E6C80ED11C8EE31C
:10224000E81683E0F80679F6DF91CF911F910F91A0
:10225000FF90EF90DF90CF90BF90AF909F908F90C6
:102260007F906F900895CF93DF93C6ECD2E060E04B
:10227000CE010E94CC302196C11588E0D807B9F76D
:10228000DF91CF910895CF93C82F6FEF811161E255
:1022900082E290E00E94CC306FEFC11166E083E2F1
:1022A00090E00E94CC306FEFC11163E084E290E0D7
:1022B000CF910C94CC306CEE7EEF90E080E00E94E9
:1022C000EA3060E082E090E00E94CC3060E083E0A1
:1022D00090E00E94CC3010922E0410922F041092A5
:1022E00030041092310460E084E090E00E94CC3031
:1022F00060E081E290E00E94CC3060E085E090E018
:102300000E94CC3060E086E090E00E94CC306FEF1D
:1023100087E090E00E94CC3040E050E0BA0188E0D5
:1023200090E00E94DE3060E08DE090E00E94CC30D2
:1023300040E050E0BA0188E190E00E94DE3060E0C9
:1023400087E190E00E94CC3040E050E0BA018CE19F
:1023500090E00E94DE3060E080E290E00E94CC30AD
:1023600040E050E0BA018FE090E00E94DE3040E0B3
:1023700050E0BA0183E190E00C94DE30CF92DF921E
:10238000EF92FF926B017C010E94D90AB701A6016E
:1023900088E090E0FF90EF90DF90CF900C94DE30DB
:1023A00080918F04833018F48F5F80938F04609145
:1023B0008B0470918C0480918D0490918E040C9408
:1023C000BE1180918F04882319F0815080938F046F
:1023D00060918B0470918C0480918D0490918E0497
:1023E0000C94BE11EBE8F4E083E0808311828FEF60
:1023F000828384EB838314826081718182819381E3
:102400000C94BE1110922C0480911B01E4ECF1E0BD
:10241000882359F080913B0487FF07C08EE1DF01DC
:102420001D928A95E9F70C94460A86E0F8CF1F932F
:10243000CF93DF93CDB7DEB7AA970FB6F894DEBF80
:102440000FBECDBF87EB94E02091F100DC012D930E
:10245000CD01B4E08F3B9B07B9F78091B80483307E
:1024600009F471C0B8F4813009F448C0823009F42D
:10247000B2C08091E80083FF3AC18091B704909187
:10248000B8049A3008F033C1E92FF0E0ED58FE4C63
:102490000C9439308A3009F48DC08B3009F470C047
:1024A000893039F78091B704813219F78091BB04E4
:1024B0009091BC04009711F00297D9F68091E80042
:1024C000877F8093E8008091E80082FF37C0809189
:1024D000F2009091F300029729F48091F1008B7F34
:1024E000813021F48091F100809393048091E80081
:1024F0008B778093E8000E948706BBCF8091B7045A
:10250000813A09F0B6CF8091E800877F8093E80098
:102510008091BB049091BC04892B61F460E284E952
:1025200094E070E00E943A078091E8008B778093F6
:10253000E8009FCF60E090E080E0F3CF8091BF049F
:102540008111C1CF96CF8091B704813A09F091CF24
:102550008091BB049091BC04892B09F08ACF8091B3
:10256000E800877F8093E8008091E80080FFFCCF3F
:1025700080911B018093F1008091E8008E77B9CFA4
:102580008091B704813209F074CF8091BB0490919F
:10259000BC04892B09F06DCF8091E800877F809380
:1025A000E8000E9487068091B90480931B010E9475
:1025B00002125FCF8091B704813209F05ACF809127
:1025C000E800877F8093E8000E9487068091BA0424
:1025D000809392044ECF8091B704813A09F049CF9D
:1025E0008091E800877F8093E8008091E80080FF79
:1025F000FCCF80919204BECF803899F0823809F0E8
:1026000076C08091BB048F70873008F070C08093D3
:10261000E9008091EB0085FB882780F91092E900A2
:1026200006C08091B4049091B5049111826090919C
:10263000E800977F9093E8008093F1001092F100FA
:102640008091E8008E77C0C1882309F4ADC1823043
:1026500009F04DC08091B9048111B1C18091BB04D2
:102660008F702FEF280F263008F041C08093E900CB
:102670002091EB0020FFA3C1933031F48091EB0057
:1026800080628093EB009BC19091EB0090619093EE
:10269000EB0021E030E001C0220F8A95EAF7209399
:1026A000EA001092EA008091EB008860EACF811185
:1026B0001EC01091B9041F778091E3008078812BB0
:1026C0008093E3008091E800877F8093E8000E9478
:1026D00087068091E80080FFFCCF8091E30080684E
:1026E0008093E30082E0111183E08093BF04809126
:1026F000E80083FF0AC08091E800877F8093E800AC
:102700008091EB0080628093EB00AA960FB6F8945C
:10271000DEBF0FBECDBFDF91CF911F9108958058CE
:10272000823028F72091B9043091BA042C3DE3E0BF
:102730003E07A1F583E08A838AE289834FB7F89444
:10274000DE01139620E03EE051E2E32FF0E05093EB
:102750005700E49120FF03C0E295EF703F5FEF70F8
:102760008E2F90E0EA30C0F0C7968D939D932F5F37
:10277000243159F74FBF8091E800877F8093E800AC
:102780006AE270E0CE0101960E943A078091E8006B
:102790008B778093E800ABCFC096E7CF8091BB04E6
:1027A0009091BC04432F55274330510509F44AC08A
:1027B00078F54130510509F485C08BE590E0E2EAF7
:1027C000FAE04230510509F092CF2091E800277FCE
:1027D0002093E8002091BD043091BE048217930736
:1027E00008F49C0140E02115310509F070C0411149
:1027F0006EC08091E80082FDC9CF8091BF0488231C
:1028000029F2853019F28091E80083FFF2CFBECF24
:102810004132510509F447C04232510509F067CFF2
:102820008330910508F063CFFC01EE0FFF1FEA54DF
:10283000FE4F0190F081E02D8D549E4FDC018C9174
:1028400090E01DC0332721303105E9F02115310515
:1028500079F022303105F9F02330310509F047CF06
:10286000EFE0FBE0E4918E2F90E0EFE0FBE007C0AB
:10287000E3E3FBE0E4918E2F90E0E3E3FBE00097DD
:1028800009F435CFA2CFEFE1FBE0E4918E2F90E089
:10289000EFE1FBE0F4CFE5E1FBE0E4918E2F90E087
:1028A000E5E1FBE0ECCF8330910508F020CF880F05
:1028B000991FFC01E454FE4F0190F081E02D89E066
:1028C00090E083CF82E190E0EDEFFAE07ECF80915F
:1028D000BF04882309F45ACF853009F457CF80917B
:1028E000E80083FD53CF8091E80082FD82CF809184
:1028F000E80080FF78CF8091F2009091F3002115DD
:10290000310519F08830910550F041E0089709F041
:1029100040E08091E8008E778093E80064CF449196
:102920004093F1003196215031090196E8CF80386B
:1029300009F0DDCE8091E800877F8093E8008091E8
:10294000B6048093F1007CCE8111D1CE1091B904F0
:10295000123008F0CCCE8091E800877F8093E800A9
:102960001093B6040E948706112311F084E005C07D
:102970008091E30087FDFACF81E08093BF0442E0BD
:1029800061EC81E00E94A60642E261EC84E00E94D4
:10299000A60642E261EC82E00E94A60642E260ECFA
:1029A00083E00E94A606A3CE8091B904813009F08D
:1029B0009ECE81E0933009F080E08093B5041092C0
:1029C000E9008091E800877F8093E8000E948706F5
:1029D0008ECE60918B04669570E04BE050E084E011
:1029E00091E00E94AB30892B19F481E080937C0444
:1029F0000E94DB08909344048093430408955F92FF
:102A00006F927F928F929F92AF92BF92CF92DF92FE
:102A1000EF92FF920F931F93CF93DF9300D000D0DC
:102A20000F92CDB7DEB780918B0480FD0AC0E8EE2F
:102A3000F1E0118210821282339622E0EC39F20723
:102A4000C1F780903E0490903F048114910409F4F2
:102A500055C0D12CC12C66246394712C53E0552EA3
:102A600080917D0493010C2C01C0220F0A94EAF797
:102A7000822309F43BC0F601EE0FFF1FE80DF91D9C
:102A8000E590F490E114F104C9F145E050E0B7019C
:102A9000CE0101960E94A23009810F3F39F18A814F
:102AA000800F9927991F8D33910514F08CE390E0E6
:102AB0005C01AA0CBB1C8A0D9B1DFC01E851FE4F5A
:102AC0005F01059D8001112408511E4F0A151B0549
:102AD00020F0F5E0EF0EF11CD8CF98014D816C810C
:102AE0008B810E94EF0A0D5F1F4FF0CF2FEFC21AAC
:102AF000D20A38E0C316D10409F0B2CF6E9A3EB1C3
:102B00003F7B2EB120644FB7F89488EE91E0FC0132
:102B10005191CF0168E02EB9000000C057FF3EB9C7
:102B2000550F000000C000C000C03EB900C06A954B
:102B300091F7F2E08C399F0751F74FBF8FE594E092
:102B40000197F1F700C000000F900F900F900F90C9
:102B50000F90DF91CF911F910F91FF90EF90DF9039
:102B6000CF90BF90AF909F908F907F906F905F902D
:102B700008958F929F92AF92BF92CF92DF92EF9281
:102B8000FF920F931F93CF93DF93FC01B280948049
:102B900081E08483CCE9D2E008EE11E08BE4A82E3A
:102BA00088248394EE24EA94F12C2BE4C22ED12CB9
:102BB00091101DC01B821A8298014A816981888107
:102BC0000E94EF0A25960D5F1F4F83E0C83CD8078F
:102BD00079F7DF91CF911F910F91FF90EF90DF90E8
:102BE000CF90BF90AF909F908F900C94FF142B814B
:102BF000222309F121502B833C818A2D821B311124
:102C000001C0822F90918E04899FC0011124B601CA
:102C10000E9411306A83211104C0332311F01C82F9
:102C2000AB8222E02B1540F280918C048883809146
:102C30008D048983C1CF0E949230823091400CF084
:102C4000BBCF82E08B15C0F40E949230B7010E9486
:102C50002530888322E02B1590F40E949230209139
:102C60008D042695622F70E00E942530280F29835D
:102C70001A82AB828C82A0CF80918C04EACF209103
:102C80008D04F5CFEF92FF921F93CF93DF93EC016A
:102C900088EEE82E81E0F82E10E08C8197014091BB
:102CA0008E0460918D04810F0E94EF0A1C5F83E007
:102CB000E80EF11C103F89F70E94FF149A818C8165
:102CC00090FF08C08F5F8C83DF91CF911F91FF90A1
:102CD000EF9008958150F7CFBF92CF92DF92EF929D
:102CE000FF920F931F93CF93DF93FC018281DD242A
:102CF000DA9480FD02C0DD24D39408EE11E0D0E028
:102D0000C0E02CE3B22EF80111821082128294E00E
:102D1000E92EF12CC12C8091E5018C0D8D330CF442
:102D20003DC06B2D0E940330892F082E000C990B9B
:102D30008C179D0791F480918E048E9DA0018F9D2C
:102D4000500D1124559547955595479598016091DB
:102D50008D0480918C040E94EF0ACD0CF1E0EF1AF3
:102D6000F108C9F621960D5F1F4FCC33D10559F6F6
:102D70000E94FF148091E50191E0D91215C08111E4
:102D800011C08BE38093E501DF91CF911F910F91EB
:102D9000FF90EF90DF90CF90BF90089587FFC5CF51
:102DA000845CC3CF8150EECF90E00196BE010E94BB
:102DB0002530E8CF0F931F93CF93DF93C8EED1E078
:102DC000FE01118210821282339682E0EC39F807FC
:102DD000C1F710E000E08091E601082E000C990B8D
:102DE000081719078CF180911001082E000C990B1F
:102DF000801791074CF19E0140918E0460918D04E3
:102E000080918C040E94EF0A0F5F1F4F23960C33B2
:102E1000110509F70E94FF1480910F019091E601BE
:102E2000980F9093E60120911001280F2093100134
:102E3000121614F49B331CF0819580930F01DF91DF
:102E4000CF911F910F910895198218821A82DCCFB9
:102E5000EF92FF920F931F93CF93DF93EC018C813E
:102E60009D810196817099279D838C8388EEE82E41
:102E700081E0F82E10E005E5812F86952C813D81BB
:102E8000820F932F911D8170970140918E04609164
:102E90008D04809F802D11240E94EF0A1F5F83E024
:102EA000E80EF11C1C3341F7DF91CF911F910F9178
:102EB000FF90EF900C94FF14EF92FF920F931F93EB
:102EC000CF93DF938C01C8EED1E0F12CE12CF80117
:102ED000948160918D0480918C04FEE1EF16F104E1
:102EE000FCF49923F9F09E0140918E040E94EF0AB0
:102EF0002FEFE21AF20A23968CE3E816F10439F771
:102F00000E94FF14F801848190E001968170992756
:102F10008483DF91CF911F910F91FF90EF900895DF
:102F2000992309F39E0140E0E1CF90918B0490FF3B
:102F30000CC0E8EEF1E0818360834283339692E037
:102F4000EC39F907C1F70C94FF1408950F931F9300
:102F5000CF93DF9300D00F92CDB7DEB78C01809175
:102F6000E70181110AC09E012F5F3F4F44EB6FEFD5
:102F70000E94EF0A8A818093E701F8016481613041
:102F800069F08091E70140E0662361F040E0623043
:102F900011F44091E70180E060E004C06091E70136
:102FA00040E080E00E949517F801848190E001964E
:102FB00063E070E00E94253084830F900F900F90A3
:102FC000DF91CF911F910F910895CF93DF9300D0A0
:102FD0000F92CDB7DEB790918B0490FF0AC09E018F
:102FE0002F5F3F4F0E94EF0A4B8169818A810E94C7
:102FF00095170F900F900F90DF91CF910895CF9379
:10300000DF93EC01EC81F0E0ED51FD4F4491EBE8F2
:10301000F4E0628181810E94E5178C818F5F8C834F
:10302000DF91CF910895CF93DF93EC01EBE8F4E0CB
:10303000438162818C810E94E5178C818F5F8C8334
:10304000DF91CF9108955F926F927F928F929F92BE
:10305000AF92BF92CF92DF92EF92FF920F931F93A6
:10306000CF93DF9300D00F92CDB7DEB7182F762E17
:10307000042F622E90918B0490FF29C0E92FE695D2
:10308000AE2FB0E0A45EBE4F8C9180937B049E7FF8
:10309000923081F59E012F5F3F4F812F0E94EF0AF2
:1030A0004B8169818A810E94951710938C047092DC
:1030B0008D0400938E04662051F060918B04709112
:1030C0008C0480918D0490918E040E94BE110F900B
:1030D0000F900F90DF91CF911F910F91FF90EF9084
:1030E000DF90CF90BF90AF909F908F907F906F9028
:1030F0005F900895823019F400918E04D6CF863007
:1031000019F410918C04D1CF8930D9F3893169F643
:10311000E9518E2F8170582EE695F0E0E252FD4F76
:10312000A590B490BB2488EEE82E81E0F82ED12C37
:10313000C12C9CE3892E912CC601B4010E94113050
:10314000812F511013C0860F9701402F672D0E94C9
:10315000EF0ACA0CDB1C83E0E80EF11C8CE9E816D0
:1031600082E0F80649F70E94FF149FCF861BECCF40
:1031700090918B0490FF36C09170811129C09260AC
:1031800090938B04662351F060918B0470918C04B2
:1031900080918D0490918E040E94BE1160918B04E9
:1031A000669570E04BE050E084E091E00E94AB3027
:1031B000892BA9F010927C0481E08093460420E0E2
:1031C00040918E0460918D0480918C040C9423189E
:1031D0008B3210F09465D4CF880F982BD1CF0E94FA
:1031E000E914EACF089521E030E0A90102C0440FBC
:1031F000551F8A95E2F7CA0120917D04662399F054
:10320000822B80937D0480917C04811106C0809183
:103210008B0460E086950E94B81880918B0480FD35
:1032200005C00C94FF1480958223EBCF0895CF92B4
:10323000DF92EF92FF926B017C0160E0C114D10438
:10324000E104F10441F0DC01C601B695A79597951C
:103250008795682F617081E00E94F31860E0C114C7
:10326000D104E104F10459F0D701C60132E0B6956A
:10327000A795979587953A95D1F7682F617082E069
:103280000E94F31860E0C114D104E104F10459F084
:10329000D701C60123E0B695A795979587952A95FE
:1032A000D1F7682F617083E00E94F318C092C004C8
:1032B000D092C104E092C204F092C304FF90EF9058
:1032C000DF90CF900C94460A0F931F936091C00437
:1032D0007091C1048091C2049091C3048B019C0140
:1032E00006701127222733270630110521053105E5
:1032F00029F468601F910F910C941719677FFACF1A
:103300000F931F9341E050E060E070E004C0440F71
:10331000551F661F771F8A95D2F7CB01BA016095BA
:103320007095809590950091C0041091C1042091F2
:10333000C2043091C30460237123822393231F911D
:103340000F910C94171990912904809589238093EB
:103350002904282F277071F4282F082E000C330B16
:103360009217130639F08595859585950E948019E9
:103370001092290408950F931F9341E050E060E0FC
:1033800070E004C0440F551F661F771F8A95D2F75F
:103390008091C0049091C104A091C204B091C30473
:1033A0008A019B01082B192B2A2B3B2BC901B80141
:1033B0001F910F910C94171981FB662760F980E02B
:1033C0000C94F31880918B048695815009F48AE25D
:1033D00061E00C94B81880918B0486958F5F8B32D6
:1033E00008F081E061E00C94B81890918B0490FF94
:1033F00007C09695981720F0961710F40C94EB19C7
:1034000061E00C94B8184F925F926F927F928F9206
:103410009F92AF92BF92CF92DF92EF92FF920F9363
:103420001F93CF93DF9300D000D00F92CDB7DEB7BC
:103430007C01FC0183819481892B31F08081918111
:1034400089238F3F09F025C60F900F900F900F90A2
:103450000F90DF91CF911F910F91FF90EF90DF9030
:10346000CF90BF90AF909F908F907F906F905F9024
:103470004F9008950E946E10182F682F89819A81AD
:103480000E94CF0969817A81812F0E94D70E8C0119
:10349000F7018281882309F4F1C5980122513F4543
:1034A0002031310508F0BCC58FEF97E00E94B8309D
:1034B000025156EC852E52E0952E882379F18091A9
:1034C0002904877009F4C0CFF7018281882309F4A9
:1034D000BBCF82E00F900F900F900F900F90DF9175
:1034E000CF911F910F91FF90EF90DF90CF90BF9001
:1034F000AF909F908F907F906F905F904F900C94C3
:10350000A3198114F8E09F06D1F2C4010E94B830DB
:10351000811101C001502FEF821A920A0111F1CFDF
:103520001C821B82662463944AE0542E84010F5F40
:103530001F4FC4010E94B83089831A82882309F47E
:10354000BECF9FEF980F933008F58A83698232E0EF
:10355000830E911CC8010E94B8308B83882309F424
:10356000AECF8E010F5F1F4FF80120812223F1F2B1
:10357000213009F043C091818281913049F40E5F7E
:103580001F4F0E945D0D0F5F1F4FEECF4801E9CF27
:10359000923029F40E5F1F4F0E94A80CF4CF933095
:1035A00029F40E5F1F4F0E94770AEDCF943019F077
:1035B0000F5F1F4FE8CF0E5F1F4F30E020E0B801D4
:1035C0006F5F7F4FF80141818053990B8A309105DD
:1035D00050F021503109B8F28FE99FE00197F1F7DF
:1035E00000C00000F6CF529EF001539EF00D112452
:1035F0009C012E0F3F1F842F8B01E1CFE22FF0E0C3
:10360000ED5FF54F7490822F86958695869590E0B4
:10361000FC01ED50F64FA4902770B12C022E02C091
:10362000B594A7940A94E2F7E1E0AE22BB24FC0132
:10363000ED51F64FC490D12C02C0D594C7942A9571
:10364000E2F7F1E0CF22DD24A114B10419F081EEFC
:103650000E94A80CC114D10419F086EE0E94A80C97
:10366000872D0E945D0DCD2819F086EE0E94770A05
:10367000AB2809F488CF81EE96CF81E00E94BB1978
:103680000E9464191CCF81E00E948019F9CF82E06A
:10369000F5CF882309F477C08091D003811106C04B
:1036A00081E08093D00382EE0E94A80C0E94DB0888
:1036B0009093CF038093CE038BE20E94A80CF70176
:1036C0009281992309F4F6C41092D1030230FCE5EB
:1036D0001F0708F45EC106312CE5120738F0980187
:1036E0002A5F3C452930310508F053C10E94A30EE2
:1036F00090933C0480933B0400313CE5130709F4AC
:1037000017C108F0A5C008309CE5190709F406C1E7
:1037100008F074C00430FCE51F0709F4F7C008F096
:103720005AC002303CE5130709F4E6C003301C45DB
:1037300009F4E8C060913B0410913C0484E090E0FF
:103740000E94CC30612F81E290E00E94CC300E9438
:103750000212B5CE8823A1F08091D003811106C05A
:1037600081E08093D00382EE0E94A80C0E94DB08C7
:103770009093CF038093CE0381EE0E94A80C9CCF40
:1037800081EE0E94770A8BE20E94770A98CF053F6C
:103790003CE51307C9F0A0F027E245EE66EE063FD0
:1037A0009CE5190709F08BCFC7010E94700D87CEE9
:1037B00027E245EE65EEF8CF26E241EE60EEF4CF6B
:1037C00027E245EE64EEF0CF26E241EE62EEECCF6A
:1037D00028E241E0EFCF80913B04806106309CE518
:1037E000190709F48CC080913B04886007301C45A0
:1037F00008F485C080913B04806281C080913B04C5
:103800008D7F0C30FCE51F0709F479C070F48091BE
:103810003B048C600A303CE5130709F470C008F4DF
:1038200081C080913B048E7F6AC080913B04877F7A
:103830000E309CE5190709F462C080913B048B7F30
:103840000F301C4508F45BC080913B048F7E57C04D
:103850000B3FFCE51F0709F45DC030F503313CE583
:10386000130709F46DC078F401319CE5190709F4D8
:1038700063C002311C4509F05DCF0E9402128091A5
:103880003B048F773CC00531FCE51F0709F460C09D
:1038900008F474C080913C0481600A3F1C4509F023
:1038A00049CF80933C0446CF0F3F8CE5180709F4BD
:1038B0004BC088F480913C048D7F0D3FECE51E07E2
:1038C00081F380913C048E7F0E3F1C4550F3809124
:1038D0003C048360E6CF01302DE5120709F457C0A0
:1038E00008F442C060E002301D4509F023CF8EE0AD
:1038F00090E00E94CC301ECF80913B048160809389
:103900003B0418CF80913B048260F9CF80913B0447
:103910008460F5CF80913C048260C3CF80913B04EA
:103920008064EDCF0E94021280913B048068E7CF53
:1039300080913B048F7DE3CF80913B048F7BDFCF71
:1039400080913B04837FDBCF80913C048C7FA9CFA7
:1039500080913B0482FB992790F921E0922790FB0C
:1039600082F990FB83F9CBCF80913C04982F9095FE
:1039700091708E7F892B90FB81F993CF0E94021268
:1039800090913B04892F97FB87F98058B8CF61E06D
:10399000AECF80912C040631ECE51E0709F096C3EA
:1039A0008A7A91E009F490E09093D203811106C0E5
:1039B00089E20E9473090E94030981CD85E3F9CF52
:1039C00085E381C380918B0480FF1BC08E7F809331
:1039D0008B0460918B0470918C0480918D04909184
:1039E0008E040E94BE1110927C04FFEF20E732E0AB
:1039F000F15020403040E1F700C000000E94FF1469
:103A00005ECD816080938B0461E086950E94B8183A
:103A100056CD42EE59E16BEE79E10E94D40A4FCDCA
:103A20004BEE59E162EE79E1F8CF47EA57E260EBFD
:103A300077E2F3CF40EB57E267EA77E2EECF4FE869
:103A400057E26BE977E2E9CF4BE957E26FE877E2BB
:103A5000E4CF47E757E263E877E2DFCF43E857E296
:103A600067E777E2DACF41EE51E160ED71E1D5CF62
:103A700040ED51E161EE71E1D0CF61E081E0C6CF70
:103A800065E082E00E94F5191ACD68E086E0FACF81
:103A90006EE089E0F7CF64E18FE0F4CF67E185E184
:103AA000F1CF61E088E1B2CF62E289E1EBCF61E082
:103AB00083E2ACCF01158CE5180709F447C00E3D31
:103AC0001C4509F450C0F70100811181992309F4C4
:103AD0004DC0C8010E946E10D82E682FC8010E94E8
:103AE000CF09B8018D2D0E94E40E8C01882EF701BC
:103AF000A580A2943FE0A322D280D11010922B0483
:103B000080912904877099F0DD2089F0812F807FD2
:103B1000803421F080E2800F883048F082E00E94FB
:103B2000A319809129048770CC24C3948111C12CDE
:103B3000B12EB2942FE0B222FBE0FB1508F450C086
:103B4000EB2DF0E0E358FE4C0C9439300E94021249
:103B5000FFEF24E33CE0F15020403040E1F700C0AB
:103B600000000E94840C0E945B11A9CCC8010E9435
:103B7000A709D82EB6CF212F2F70A22E107F19F0B3
:103B8000A29490EFA922DD20C9F0AA2069F080E27A
:103B9000800F883010F081100BC080912C04A82A6F
:103BA000A0922C040E940309802F0E94A80C18C028
:103BB00080912B04A82AA0922B04F4CF802F0E947E
:103BC000770AAA2069F0A094005E083010F08110F6
:103BD0003DC080912C04A822A0922C040E940309CD
:103BE000EB2DE850FF0B349720F40E946B0A0E94E3
:103BF000DC19CC2009F428CC8091290480FD24CC48
:103C0000F70112828595859585950E94BB19C7019C
:103C10000E94031A809129048595859585950F90BA
:103C20000F900F900F900F90DF91CF911F910F91F8
:103C3000FF90EF90DF90CF90BF90AF909F908F90CC
:103C40007F906F905F904F900C94801980912B041F
:103C5000A822A0922B04C2CF312F3F70932E107F49
:103C6000103219F0929480EF9822882071F081E050
:103C7000881661F1DD20B9F1AA2071F1F701858183
:103C800080FF92CF8F70858327C0DD2091F09091C7
:103C90002D04892D892BA11003C00E94100AA0CFEA
:103CA000E1E0AE12FACF981709F49ACF80932D0471
:103CB00097CFA11006C00E94FD08892D0E94050A19
:103CC0008FCFF1E0AF1609F48BCFF5CFDD2031F0C7
:103CD00025E02A1508F484CF892DDFCF34E03A158A
:103CE00008F47ECFEACFAA2041F3F9E38F1291C105
:103CF0002FEF37EE83E0215030408040E1F700C0E5
:103D0000000087C1812F86958695837061F0813090
:103D100009F066CFC8019370D11002C090E080E036
:103D20000E941A0A5DCFC8019370D11002C090E0C2
:103D300080E00E94300A54CF802FDD2029F00E94BD
:103D400064080E94E7084CCF0E94A307FACF812F96
:103D5000837009F066C0D11043CF802F829586957D
:103D60008770880F880F602F6F70462E512C712C32
:103D7000612C082E04C0440C551C661C771C0A9448
:103D8000D2F740E050E0BA0104FF0FC04FE050E02E
:103D900060E070E004C0440F551F661F771F8A95CE
:103DA000D2F74095509560957095812F86958695B0
:103DB0008370823019F1D8F400912E0410912F04F1
:103DC0002091300430913104813069F04429552923
:103DD00066297729CB01BA016023712382239323BB
:103DE0000E94610AFDCE402A512A622A732ACB0121
:103DF000BA016429752986299729F2CF44295529C2
:103E00006629772900912E0410912F042091300407
:103E100030913104CB01BA016027712782279327A3
:103E2000DFCF8695DD2011F0812F8170882309F482
:103E3000D7CE802F829586958770880F880F602F48
:103E40006F70462E512C712C612C082E04C0440C2E
:103E5000551C661C771C0A94D2F740E050E0BA016A
:103E600004FF0FC04FE050E060E070E004C0440F7A
:103E7000551F661F771F8A95D2F74095509560951C
:103E80007095812F869586958370823019F1D8F4CC
:103E90000091C0041091C1042091C2043091C30468
:103EA000813069F04429552966297729CB01BA0167
:103EB00060237123822393230E94171991CE402AF5
:103EC000512A622A732ACB01BA01642975298629ED
:103ED0009729F2CF44295529662977290091C004F2
:103EE0001091C1042091C2043091C304CB01BA01E6
:103EF0006027712782279327DFCF1F70DD2029F0ED
:103F0000812F0E94BB19802FC8CE802F0E94050AE6
:103F1000812F0E94801964CE802F92EF891609F4B8
:103F200050C0981578F0E0EF8E1619F1F1EF8F166A
:103F300009F43FC0DD2009F467C0A11035CE812F00
:103F40008F713CC023EF821609F440C034EF831216
:103F5000F1CFDD2009F44DC01F71812F0E94BB19E4
:103F6000E8E01E9FC0011124836080932904812F03
:103F700025C0DD20C9F084E08A1508F431CE1F7118
:103F800061E070E080E090E004C0660F771F881F5A
:103F9000991F1A95D2F70091C0041091C104209185
:103FA000C2043091C304A4CF95E09A1508F418CE4A
:103FB000E6CF812F8F71DD2009F4ABCF0E94BB19B2
:103FC0000FCE812F8F71DD20C9F3A3CF60E070E0A9
:103FD000CB01DD2009F470CF1F7161E070E080E05B
:103FE00090E004C0660F771F881F991F1A95D2F7BB
:103FF00063CF81E00E94A319F1E0FA1508F0F0CD3B
:1040000082E00E94A319ECCDAA2039F0893309F48B
:104010006FCE802F0E94770AE3CD812F8F7179CFE9
:104020000031FFE51F0709F428CB01312FE5120706
:1040300009F42DCB00382FE5120709F42ACB0138FB
:104040003FE5130709F486CB033F8CE5180709F415
:10405000B3CB08F09CCB083DECE51E0709F4A8CBD8
:10406000093DFCE51F0709F4B3CB073D2CE512071A
:1040700009F025CB26E241EE61EE96CB00313FE51B
:10408000130709F400CB01319FE5190799F682E087
:10409000FBCA85E0DE01119601900D928A95E1F749
:1040A000F701228189819A812111E4C90E94A7091F
:1040B000182FE8C906311C4509F005CD8091D203BF
:1040C00081117ECC89E20E94480975CC8272F80188
:1040D000E25CFC45E431F10508F0ECCCE757FE4C1E
:1040E0000C9439301F93CF93DF938091D803807F56
:1040F000A9F48091D503882389F080910A04D09196
:10410000D9036091D3037091D403A091D603B091E9
:10411000D703C62FC72316E0D81304C0DF91CF9171
:104120001F91089590E0109711F0CF3F19F4019678
:104130008770F2CF189F9001199F300D1124F9015B
:10414000E652FC4F41814713F2CF40814613EFCF37
:1041500042814111ECCF438154814A1B5B0B483CA7
:10416000510528F78091D8038F7080618093D80320
:10417000F901E152FC4F80818F708061808383ED73
:1041800093E00E94031ADF91CF911F910C94FB09D9
:10419000AF92BF92CF92DF92EF92FF920F931F9355
:1041A000CF93DF93CDB7DEB761970FB6F894DEBF3C
:1041B0000FBECDBF8C0185E0F801DE011D96019098
:1041C0000D928A95E1F7F80180819181E28023EDDB
:1041D000A22E23E0B22E6091D6037091D703611511
:1041E000710509F43EC13091D3034091D403232FCC
:1041F00024232F3F09F435C1C380D480F090D50328
:10420000F601E61BF70BFF2009F4FBC02091D80351
:10421000522F507FE83CF10508F0BBC0511178C027
:10422000FE2C491321C038131FC0E1101DC02F7090
:1042300020612093D803C5010E94031A8091D803FE
:10424000F80185838F2D61960FB6F894DEBF0FBEFF
:10425000CDBFDF91CF911F910F91FF90EF90DF9035
:10426000CF90BF90AF900895CD2829F0282F292313
:104270002F3F09F014C120E0F22FF170DF2E20FF54
:104280003DC020910A044091D90356E0241315C083
:104290008D879E878D859E850E94B010292F22953F
:1042A0002F702230F8F0243020F59F70F9F0F801DB
:1042B0009581907FD9F4D12C1FC030E0529FF0013E
:1042C000539FF00D1124E652FC4F6181961306C0F6
:1042D0006081861303C06281E61210C02F5F3F4FDA
:1042E0002770D4CF9F7011F0882329F3805E883027
:1042F00010F3C8010E94031AFD2CA4CFEE2009F48C
:10430000A1CF8091D80381608093D803F12C9ACFFC
:10431000491312C0381310C0E1100EC0F8012583F4
:10432000C8010E94031A86E0F801A3EDB3E00190F2
:104330000D928A95E1F786CF8D879E878D859E8524
:104340000E94BA10882309F1EE20F9F08091D80379
:10435000803270F02091D3033091D40338872F83BB
:104360001986DB86CA868C87CE0107960E94031ABF
:1043700086E0F801A3EDB3E001900D928A95E1F794
:104380000E947220FF24F3945DCFC8010E94031A9B
:10439000F9CF51110AC083ED93E00E94031A86E021
:1043A000F50111928A95E9F7B1CF49130FC038137F
:1043B0000DC0E1100BC0F8012583C8010E94031A4B
:1043C00086E0F50111928A95E9F73CCF8D879E87AB
:1043D0008D859E850E94BA108823B9F2EE20A9F23D
:1043E0008091D803803220F22091D3033091D403FE
:1043F0003A8329831B82DD82CC828E83CE01019693
:10440000B5CFE83CF105E0F6FE2CEE2009F4BDCF77
:10441000491316C0381314C08091D80380FD83CF90
:10442000982F907F09F47FCFF8018583903F09F49E
:1044300077CF982F907F905F8F70892B858370CF77
:104440008D879E878D859E850E94BA10811190CFA1
:104450008091D80381608093D803C8010E94031A19
:10446000F1CEEE2009F491CF8D879E878D859E85B4
:104470000E94BA10F82E882309F487CF86E0F8014D
:10448000A3EDB3E001900D928A95E1F78091D303FB
:104490009091D4030E94B0100E947220D3CE21E0EC
:1044A0002E25EACE1F93CF93DF93CDB7DEB7679764
:1044B0000FB6F894DEBF0FBECDBF4B8B5C8B6D8B00
:1044C0007E8B8F8B1A8A198A85E0FE017396DE0136
:1044D0001D9601900D928A95E1F786E0FE013D96CA
:1044E000DE01179601900D928A95E1F7CE010796AD
:1044F0000E94C820882389F016E080910A049091D8
:10450000D903891349C067960FB6F894DEBF0FBE72
:10451000CDBFDF91CF911F91089586E0FE013796C0
:10452000DE01119601900D928A95E1F78A859B85AF
:10453000892B11F38F81988589238F3FE9F2209190
:10454000D90330E0C90101968770992740910A0488
:104550004817190671F40E9402121092D9031092A2
:104560000A0486E0E3EDF3E0DF011D928A95E9F7A6
:10457000C3CF96E0929FD001939FB00D1124A65215
:10458000BC4FFE01319601900D929A95E1F7809310
:10459000D9030E94FB09B0CF819FC001112486522C
:1045A0009C4F0E94C820882309F4ADCF80910A0453
:1045B00090E001968770992780930A049ECF0F930D
:1045C0001F93CF93DF93CDB7DEB7C45BD1090FB68E
:1045D000F894DEBF0FBECDBF182F8111CCC066236B
:1045E00009F46AC0C055DF4F1882C05BD040CF5479
:1045F000DF4F1882C15BD04081E0CE54DF4F88830B
:10460000C25BD0400E94DB088160782FCD54DF4F21
:1046100099838883C35BD040C055DF4F4881C05B1E
:10462000D040CF54DF4F5881C15BD040CE54DF4FD4
:104630006881C25BD040CC54DF4F8881C45BD040DE
:104640000E945222C555DF4F1882CB5AD040C45524
:10465000DF4F1882CC5AD040C355DF4F1882CD5A55
:10466000D0400E94DB088160782FC255DF4F9983CC
:104670008883CE5AD040C555DF4F4881CB5AD040B1
:10468000C455DF4F5881CC5AD040C355DF4F6881A5
:10469000CD5AD040C155DF4F8881CF5AD040CC543D
:1046A000DF4F0FB6F894DEBF0FBECDBFDF91CF91C5
:1046B0001F910F910C94522212E0CA55DF4F1883BC
:1046C000C65AD040C955DF4F1882C75AD04081E042
:1046D000C855DF4F8883C85AD0400E94DB088160EC
:1046E000782FC755DF4F99838883C95AD040CA5560
:1046F000DF4F4881C65AD040C955DF4F5881C75A4D
:10470000D040C855DF4F6881C85AD040C655DF4FEA
:104710008881CA5AD0400E945222CF55DF4F188359
:10472000C15AD040CE55DF4F1882C25AD040CD5525
:10473000DF4F1882C35AD0400E94DB088160782F77
:10474000CC55DF4F99838883C45AD040CF55DF4F73
:104750004881C15AD040CE55DF4F5881C25AD0400F
:10476000CD55DF4F6881C35AD040CB55DF4F88818C
:10477000C55AD04094CF813009F0BEC0662309F4F9
:104780005DC0C456DF4F1882CC59D040C356DF4FAE
:104790008883CD59D040C256DF4F8883CE59D04050
:1047A0000E94DB088160782FC156DF4F9983888390
:1047B000CF59D040C456DF4F4881CC59D040C35662
:1047C000DF4F5881CD59D040C256DF4F6881CE5956
:1047D000D040C056DF4F8881C05AD0400E9452223C
:1047E000C956DF4F1882C759D040C856DF4F1883CB
:1047F000C859D040C756DF4F1882C959D0400E94CF
:10480000DB088160782FC656DF4F99838883CA59A9
:10481000D040C956DF4F4881C759D040C856DF4FF6
:104820005881C859D040C756DF4F6881C959D04018
:10483000C556DF4F8881CB59D04031CF02E0CE56EC
:10484000DF4F0883C259D040CD56DF4F8883C3590C
:10485000D040CC56DF4F8883C459D0400E94DB083B
:104860008160782FCB56DF4F99838883C559D0401C
:10487000CE56DF4F4881C259D040CD56DF4F5881C8
:10488000C359D040CC56DF4F6881C459D040CA5676
:10489000DF4F8881C659D0400E945222C357DF4F54
:1048A0000883CD58D040C257DF4F1883CE58D04030
:1048B000C157DF4F1882CF58D0400E94DB0881607B
:1048C000782FC057DF4F99838883C059D040C35792
:1048D000DF4F4881CD58D040C257DF4F5881CE5866
:1048E000D040C157DF4F6881CF58D040CF56DF4FFF
:1048F0008881C159D040D3CE823009F0ABC0662345
:1049000009F45EC0C857DF4F1882C858D040C75757
:10491000DF4F8883C958D04081E0C657DF4F888376
:10492000CA58D0400E94DB088160782FC557DF4FFE
:1049300099838883CB58D040C857DF4F4881C858E7
:10494000D040C757DF4F5881C958D040C657DF4FB6
:104950006881CA58D040C457DF4F8881CC58D040B6
:104960000E945222CD57DF4F1882C358D040CC57F7
:10497000DF4F1883C458D040CB57DF4F1882C5583B
:10498000D0400E94DB088160782FCA57DF4F99839F
:104990008883C658D040CD57DF4F4881C358D04098
:1049A000CC57DF4F5881C458D040CB57DF4F688178
:1049B000C558D040C957DF4F8881C758D0406FCE07
:1049C000EF968FAFEF97C158DF4F8883CF57D04016
:1049D00081E0C058DF4F8883C058D0400E94DB0878
:1049E0008160782FCF57DF4F99838883C158D0409B
:1049F000EF964FADEF97C158DF4F5881CF57D0405A
:104A0000C058DF4F6881C058D040CE57DF4F8881F3
:104A1000C258D0400E945222EA961FAFEA97EB9606
:104A20001FAFEB97EC961FAEEC970E94DB088160FE
:104A3000782FEE969FAF8EAFEE97EA964FADEA973E
:104A4000EB965FADEB97EC966FADEC97EE968FAD76
:104A5000EE9725CE833009F081C0662309F43FC06C
:104A600019E0E5961FAFE597E6961FAEE69781E061
:104A7000E7968FAFE7970E94DB088160782FE99671
:104A80009FAF8EAFE997E5964FADE597E6965FADA0
:104A9000E697E7966FADE797E9968FADE9970E94A5
:104AA0005222E0961FAFE097E1961FAEE197E296A3
:104AB0001FAEE2970E94DB088160782FE4969FAFDB
:104AC0008EAFE497E0964FADE097E1965FADE1974A
:104AD000E2966FADE297E4968FADE497E0CD1BE0F0
:104AE000AB961FAFAB97AC961FAEAC9781E0AD967F
:104AF0008FAFAD970E94DB088160782FAF969FAF94
:104B00008EAFAF97AB964FADAB97AC965FADAC9712
:104B1000AD966FADAD97AF968FADAF970E94522215
:104B2000A6961FAFA697A7961FAEA797A8961FAEEB
:104B3000A8970E94DB088160782FAA969FAF8EAF5E
:104B4000AA97A6964FADA697A7965FADA797A896EA
:104B50006FADA897AA968FADAA97A1CD843009F022
:104B600081C0662309F43FC009E0A1960FAFA19769
:104B700011E0A2961FAFA297A3961FAFA3970E9422
:104B8000DB088160782FA5969FAF8EAFA597A19681
:104B90004FADA197A2965FADA297A3966FADA397D5
:104BA000A5968FADA5970E9452226C960FAF6C9779
:104BB0006D961FAF6D976E961FAE6E970E94DB08C5
:104BC0008160782FA0969FAF8EAFA0976C964FAD67
:104BD0006C976D965FAD6D976E966FAD6E97A09664
:104BE0008FADA0975CCD0BE067960FAF679711E094
:104BF00068961FAF689769961FAF69970E94DB0898
:104C00008160782F6B969FAF8EAF6B9767964FAD95
:104C1000679768965FAD689769966FAD69976B9671
:104C20008FAD6B970E94522262960FAF6297639688
:104C30001FAF639764961FAE64970E94DB08816084
:104C4000782F66969FAF8EAF669762964FAD62974C
:104C500063965FAD639764966FAD649766968FAD0C
:104C600066971DCD853009F077C0662309F440C0F2
:104C700009E02D960FAF2D9712E02E961FAF2E97BD
:104C800081E02F968FAF2F970E94DB088160782FED
:104C900061969FAF8EAF61972D964FAD2D972E9653
:104CA0005FAD2E972F966FAD2F9761968FAD619761
:104CB0000E94522228960FAF289729961FAF299756
:104CC0002A961FAE2A970E94DB088160782F2C96C7
:104CD0009FAF8EAF2C9728964FAD289729965FAD42
:104CE00029972A966FAD2A972C968FAD2C97D7CC03
:104CF0000BE023960FAF239712E024961FAF249763
:104D000081E025968FAF25970E94DB088160782F80
:104D100027969FAF8EAF279723964FAD2397249664
:104D20005FAD249725966FAD259727968FAD279772
:104D30000E9452220DAF1EAF1FAE0E94DB088160A1
:104D4000782F22969FAF8EAF22974DAD5EAD6FAD9F
:104D500022968FAD2297A3CC863009F042C06623FD
:104D600001F109E008AF13E019AF81E08AAF0E94BA
:104D7000DB088160782F9CAF8BAF48AD59AD6AAD31
:104D80008CAD0E9452220BAB1CAB1DAA0E94DB080B
:104D90008160782F9FAB8EAB4BA95CA96DA98FA9C1
:104DA0007ECC0BE00EA713E01FA781E088AB0E942A
:104DB000DB088160782F9AAB89AB4EA55FA568A907
:104DC0008AA90E94522209A71AA71BA60E94DB08E3
:104DD0008160782F9DA78CA749A55AA56BA58DA5A5
:104DE0005ECC873009F041C06623F9F013E01CA3C4
:104DF0001DA381E08EA30E94DB088160782F98A715
:104E00008FA34CA15DA16EA188A50E9452221F8F85
:104E100018A319A20E94DB088160782F9BA38AA3A4
:104E20004F8D58A169A18BA13ACC05E00A8F13E000
:104E30001B8F81E08C8F0E94DB088160782F9E8F12
:104E40008D8F4A8D5B8D6C8D8E8D0E9452220D8BC5
:104E50001E8B1F8A0E94DB088160782F998F888FB4
:104E60004D895E896F89898D1ACC662301F106E030
:104E7000088B13E0198B81E08A8B0E94DB0881602C
:104E8000782F9C8B8B8B488959896A898C890E94E1
:104E900052220B871C871D860E94DB088160782FB9
:104EA0009F878E874B855C856D858F85F8CB08E065
:104EB0000E8313E01F8381E088870E94DB088160F6
:104EC000782F9A8789874E815F8168858A850E94BD
:104ED000522209831A831B820E94DB088160782F8B
:104EE0009D838C8349815A816B818D81D8CBEBE87E
:104EF000F4E0438128E0421B08F440E021E06281B5
:104F000081810C942318EBE8F4E0438128E0420F00
:104F100008F44FEF21E0628181810C942318EBE8C3
:104F2000F4E0628128E0621B08F460E021E0438144
:104F300081810C942318EBE8F4E0628128E0620F91
:104F400008F46FEF21E0438181810C942318EBE892
:104F5000F4E0818121E04381628188500C94231820
:104F6000EBE8F4E0818121E043816281885F0C9469
:104F700023181F920F920FB60F9211242F933F9375
:104F80004F935F936F937F938F939F93AF93BF9351
:104F9000CF93DF93EF93FF93D091E900DF7080917F
:104FA000EC00C82FC17080FDC0E81092E90080912C
:104FB000F000877F8093F00078940E94171210927F
:104FC000E9008091F00088608093F000CD2BCF70D5
:104FD000C093E900FF91EF91DF91CF91BF91AF9125
:104FE0009F918F917F916F915F914F913F912F9101
:104FF0000F900FBE0F901F9018951F920F920FB633
:105000000F9211242F933F934F935F936F937F934E
:105010008F939F93AF93BF93EF93FF938091E100A2
:1050200082FF09C08091E20082FF05C08091E1000B
:105030008B7F8093E1008091DA0080FF24C0809113
:10504000D80080FF20C08091DA008E7F8093DA0044
:105050008091D90080FFB2C088E189BD8AE189BD15
:1050600009B400FEFDCF81E08093BF0480918A04E3
:10507000811109C00E94E5050E94D8068091E200D6
:1050800084608093E2008091E10080FF17C08091EE
:10509000E20080FF13C08091E2008E7F8093E200E7
:1050A0008091E20080618093E2008091D80080626C
:1050B0008093D80019BC85E08093BF048091E10003
:1050C00084FF40C08091E20084FF3CC088E189BD3C
:1050D0008AE189BD89B5982F917080FFFBCF8091BF
:1050E000D8008F7D8093D8008091E1008F7E8093DF
:1050F000E1008091E2008F7E8093E2008091E200E7
:1051000081608093E2008091B604882309F45CC03A
:1051100084E08093BF040E9402120E946B0A0E94E6
:10512000DC191092910480919004882349F08091B9
:105130008B04816080938B0460E086950E94B81890
:105140000E94E9148091E10083FF27C08091E20072
:1051500083FF23C08091E100877F8093E10082E09C
:105160008093BF041092B6048091E1008E7F8093FB
:10517000E1008091E2008E7F8093E2008091E20066
:1051800080618093E20042E060E080E00E94A60639
:105190008091F00088608093F000FF91EF91BF91C3
:1051A000AF919F918F917F916F915F914F913F91BF
:1051B0002F910F900FBE0F901F90189519BC109251
:1051C000BF0410928A045FCF8091E30087FD93E0D3
:1051D0009093BF04A0CFCDB7DEB7AA970FB6F894CF
:1051E000DEBF0FBECDBF84B7877F84BF0FB6F894F4
:1051F000A8958091600088618093600010926000A3
:105200000FBE80E890E00FB6F89480936100909311
:1052100061000FBE85B7806885BF85B7806885BF90
:105220000E94E5050E94D8068091E2008460809388
:10523000E20078948091BF048823A1F01091E900E6
:105240001F709091EC00892F817090FD80E8182BE1
:105250001092E9008091E80083FD0E9417121F70F0
:105260001093E90082E084BD93E095BD9AEF97BD6D
:1052700080936E00A8E7B1E04CE751E061E070E098
:105280008D91E82FE295EF70F0E011A18F709B01F6
:1052900001C0220F8A95EAF7922F9095912391A34E
:1052A00082A1822B82A34A175B0751F7ACE7B1E0DA
:1052B00048E851E061E070E08D91E82FE295EF70F1
:1052C000F0E011A18F709B0101C0220F8A95EAF7CF
:1052D000922F9095912391A382A1822B82A34A17AA
:1052E0005B0751F7109234041092330410927F043C
:1052F00010927E04109236041092350410928104AC
:105300001092800410923804109237041092830493
:105310001092820410923A0410923904109285047B
:10532000109284040E94D40D8FE39CE90197F1F759
:1053300000C000000E94D40D80917E0480FF0BC04D
:1053400080E00E9443116FEF7FEF90E080E00E94C9
:10535000EA300E94840C90E080E00E94C6308C3ECF
:105360009E4F11F00E945B1182E290E00E94B830E3
:10537000813209F0D1C583E290E00E94B8308630D6
:1053800009F0CAC584E290E00E94B830833009F089
:10539000C3C590E080E00E94C6308C3E9E4F11F065
:1053A0000E945B1182E090E00E94B830809372040A
:1053B0000E94A30E90933C0480933B0483E090E012
:1053C0000E94B830682F70E090E080E00E94610A8F
:1053D00080913D04811136C090E080E00E94C6308B
:1053E0008C3E9E4F21F00E945B110E94F21188E0DA
:1053F00090E00E94C03060938B0470938C04809383
:105400008D0490938E046E7F71F40E94F21188E0F7
:1054100090E00E94C03060938B0470938C04809362
:105420008D0490938E040E94D90A10927C0480917E
:105430008B0480FF04C060E086950E94B81881E06C
:1054400080933D0463EB71E04BE5842E44E0942EA1
:1054500021EA31E0EAEAF1E041E050E01191812FE8
:1054600082958F7090E0DC019196FC9091971F706F
:10547000E12E6A0101C0CC0C1A95EAF70C2D0095BB
:105480000F2191960C93919792961C9192971C29BB
:1054900092961C93D901FD909D010F2D02950F70DE
:1054A00010E0D8019196BC90BF2DBF70FB2E6A0111
:1054B00001C0CC0CBA95EAF7DC2CD094DB20D801E3
:1054C0009196DC9291979296DC909297DC28929636
:1054D000DC92DC0190968C9190E002C095958795C6
:1054E000EA94E2F78170D80190960C9110E002C026
:1054F00015950795FA94E2F790E000FD92E0892B6C
:10550000D4018D934D016E177F0709F0A7CF83E873
:105510009AE090933F0480933E0481E191E0909360
:105520004104809340048091BF04853009F428C26F
:105530000E94D40DAEE7B4E0E3E7F4E010E000E051
:10554000602F8D919D91419151914817590709F410
:1055500079C24827592720E0EE24E394F12C6A0110
:10556000CE20DF20CD2809F467C229A36AA39C01BD
:105570002E213F2191E0232B09F490E09BA30E9470
:10558000DB088160782F9DA38CA349A15AA16BA150
:105590008DA10E945222000F111FF801ED58FB4F00
:1055A00080819181E826F926F182E08280917C0455
:1055B000882309F441C080917B04E0918B04E69537
:1055C000E81BE0934504823009F053C2F0E0E25654
:1055D000F54FE4910E2F10E05FEFE52E57E1F52E29
:1055E00080914604882389F0109246040E94DB08CB
:1055F000980120953095820F931F909344048093D7
:1056000043041092480410924704809143049091FF
:1056100044040E94CC088017910770F0E091430485
:10562000F09144040E0F1F1F109344040093430491
:1056300083E494E0F701099532E5E32E34E0F32E9C
:1056400009E414E048E9442E41E0542E51EA652E65
:1056500051E0752E6AEA862E61E0962E7BE5A72E34
:1056600074E0B72E312CD501ED915D01EE0FEE0FF8
:10567000D4012D914D01A22FA295AF70B0E090966C
:105680008C9190E02F7002C0959587952A95E2F74E
:1056900081709927D3014D913D01A42FA295AF7040
:1056A000B0E090962C9130E04F7002C03595279570
:1056B0004A95E2F7A9014170552720FF02C042E058
:1056C00050E0842BE82BD5011197EC93D201CD90BB
:1056D0002D01EF70F0E0E857FE4F8081F7019081D7
:1056E000890F80838C1544F0D8018C918F5F8C9347
:1056F00060E0832D0E94DF220C2C000CDD08F701F6
:105700008081082E000C990B222733272C193D0984
:105710002817390744F0D8018C9181508C9361E0AF
:10572000832D0E94DF22F7018081082E000C990B47
:10573000B6010E942530D7018D937D0133940F5F10
:105740001F4FB9E03B128FCF86E0EBE6F4E0DE01BD
:10575000119601900D928A95E1F780916D049091D8
:105760006E04892B09F468C08091690490916A04E1
:105770000E94CC089C0190916804992309F4E7C326
:105780002333310508F458C09F3F19F09F5F909371
:10579000680410926F041092700480916D041816C2
:1057A00024F40E94440880936D0480916D0487FF67
:1057B00005C00E944408819580936D0480916E0419
:1057C000181624F40E94440880936E0480916E049D
:1057D00087FF05C00E944408819580936E04309134
:1057E0006D043323B1F020916E04222391F045EB38
:1057F0003403C0011124992309F4A7C190936D04C7
:1058000045EB240390011124332309F4A2C1309302
:105810006E040E94E708809166049091670490935B
:105820006A048093690486E0FE013196ABE6B4E039
:1058300001900D928A95E1F780916F049091700428
:10584000892B09F468C080916404909165040E94DA
:10585000CC089C0190916804992309F473C3253600
:10586000310508F458C09F3F19F09F5F909368047A
:1058700010926D0410926E0480916F04181624F437
:105880000E94220880936F0480916F0487FF05C0F7
:105890000E942208819580936F04809170041816ED
:1058A00024F40E942208809370048091700487FF82
:1058B00005C00E94220881958093700430916F0486
:1058C0003323B1F020917004222391F045EB34038F
:1058D000C0011124992309F440C190936F0445EB52
:1058E000240390011124332309F43BC13093700445
:1058F0000E94E70880916604909167049093650484
:105900008093640486E0FE013196ABE6B4E001903A
:105910000D928A95E1F70E946B0A909171048917A4
:1059200031F00E946B0A809371040E94DC1980910F
:10593000BF04843009F0F7CD83E08093E9008091C3
:10594000E80082FFF0CD8091E80090E085FF06C07E
:105950000E940406882309F408C191E08091E800C0
:105960008B778093E800992309F4DDCDE981E1503C
:10597000E33108F06CC1F0E0E356FE4C0C94393092
:105980008091BF04843009F444C01092420488E13D
:1059900090E020E40FB6F894A895809360000FBEC5
:1059A0002093600080E00E94DC1910927C048091BA
:1059B0009104811117C081E08093910480918B0440
:1059C000982F9170909390048E7F80938B04BFEFFB
:1059D000E0E7F2E0B150E040F040E1F700C0000045
:1059E0000E94FF1483B7817F846083BF83B7816087
:1059F00083BF7894889583B78E7F83BF0FB6F89462
:105A0000A89580916000886180936000109260008A
:105A10000FBE8091B504882309F485CD0E94D40D72
:105A2000EEE7F4E081919191892B09F05FC224E0C7
:105A3000E638F207B9F777CD2F5FEE0CFF1C2C305C
:105A400009F08DCD0F5F1F4F0430110509F078CD9F
:105A50008FEF8EA38FA318A60E94DB088160782F9A
:105A60009AA789A74EA15FA168A58AA50E94522284
:105A70009DCD863059F4F0E0E556F54FE4910E2FB8
:105A800010E043E1E42E48E1F42EAACD893061F420
:105A9000E695F0E0E856F54FE4910E2F10E032E481
:105AA000E32E36E1F32E9CCD8F3061F4E695F0E0E5
:105AB000EB56F54FE4910E2F10E02CE6E22E26E196
:105AC000F22E8ECD853159F4F0E0EE56F54FE4918B
:105AD0000E2F10E09AEDE92E96E1F92E81CD08EE19
